{
  "contractName": "CharToken",
  "abi": [
    {
      "inputs": [],
      "stateMutability": "nonpayable",
      "type": "constructor"
    },
    {
      "anonymous": false,
      "inputs": [
        {
          "indexed": true,
          "internalType": "address",
          "name": "owner",
          "type": "address"
        },
        {
          "indexed": true,
          "internalType": "address",
          "name": "spender",
          "type": "address"
        },
        {
          "indexed": false,
          "internalType": "uint256",
          "name": "value",
          "type": "uint256"
        }
      ],
      "name": "Approval",
      "type": "event"
    },
    {
      "anonymous": false,
      "inputs": [
        {
          "indexed": true,
          "internalType": "address",
          "name": "from",
          "type": "address"
        },
        {
          "indexed": true,
          "internalType": "address",
          "name": "to",
          "type": "address"
        },
        {
          "indexed": false,
          "internalType": "uint256",
          "name": "value",
          "type": "uint256"
        }
      ],
      "name": "Transfer",
      "type": "event"
    },
    {
      "inputs": [
        {
          "internalType": "address",
          "name": "owner",
          "type": "address"
        },
        {
          "internalType": "address",
          "name": "spender",
          "type": "address"
        }
      ],
      "name": "allowance",
      "outputs": [
        {
          "internalType": "uint256",
          "name": "",
          "type": "uint256"
        }
      ],
      "stateMutability": "view",
      "type": "function"
    },
    {
      "inputs": [
        {
          "internalType": "address",
          "name": "spender",
          "type": "address"
        },
        {
          "internalType": "uint256",
          "name": "amount",
          "type": "uint256"
        }
      ],
      "name": "approve",
      "outputs": [
        {
          "internalType": "bool",
          "name": "",
          "type": "bool"
        }
      ],
      "stateMutability": "nonpayable",
      "type": "function"
    },
    {
      "inputs": [
        {
          "internalType": "address",
          "name": "account",
          "type": "address"
        }
      ],
      "name": "balanceOf",
      "outputs": [
        {
          "internalType": "uint256",
          "name": "",
          "type": "uint256"
        }
      ],
      "stateMutability": "view",
      "type": "function"
    },
    {
      "inputs": [],
      "name": "currentOwner",
      "outputs": [
        {
          "internalType": "address",
          "name": "",
          "type": "address"
        }
      ],
      "stateMutability": "view",
      "type": "function"
    },
    {
      "inputs": [],
      "name": "decimals",
      "outputs": [
        {
          "internalType": "uint8",
          "name": "",
          "type": "uint8"
        }
      ],
      "stateMutability": "view",
      "type": "function"
    },
    {
      "inputs": [
        {
          "internalType": "address",
          "name": "spender",
          "type": "address"
        },
        {
          "internalType": "uint256",
          "name": "subtractedValue",
          "type": "uint256"
        }
      ],
      "name": "decreaseAllowance",
      "outputs": [
        {
          "internalType": "bool",
          "name": "",
          "type": "bool"
        }
      ],
      "stateMutability": "nonpayable",
      "type": "function"
    },
    {
      "inputs": [
        {
          "internalType": "address",
          "name": "spender",
          "type": "address"
        },
        {
          "internalType": "uint256",
          "name": "addedValue",
          "type": "uint256"
        }
      ],
      "name": "increaseAllowance",
      "outputs": [
        {
          "internalType": "bool",
          "name": "",
          "type": "bool"
        }
      ],
      "stateMutability": "nonpayable",
      "type": "function"
    },
    {
      "inputs": [],
      "name": "name",
      "outputs": [
        {
          "internalType": "string",
          "name": "",
          "type": "string"
        }
      ],
      "stateMutability": "view",
      "type": "function"
    },
    {
      "inputs": [],
      "name": "previousOwner",
      "outputs": [
        {
          "internalType": "address",
          "name": "",
          "type": "address"
        }
      ],
      "stateMutability": "view",
      "type": "function"
    },
    {
      "inputs": [],
      "name": "symbol",
      "outputs": [
        {
          "internalType": "string",
          "name": "",
          "type": "string"
        }
      ],
      "stateMutability": "view",
      "type": "function"
    },
    {
      "inputs": [],
      "name": "totalSupply",
      "outputs": [
        {
          "internalType": "uint256",
          "name": "",
          "type": "uint256"
        }
      ],
      "stateMutability": "view",
      "type": "function"
    },
    {
      "inputs": [
        {
          "internalType": "address",
          "name": "to",
          "type": "address"
        },
        {
          "internalType": "uint256",
          "name": "amount",
          "type": "uint256"
        }
      ],
      "name": "transfer",
      "outputs": [
        {
          "internalType": "bool",
          "name": "",
          "type": "bool"
        }
      ],
      "stateMutability": "nonpayable",
      "type": "function"
    },
    {
      "inputs": [
        {
          "internalType": "address",
          "name": "from",
          "type": "address"
        },
        {
          "internalType": "address",
          "name": "to",
          "type": "address"
        },
        {
          "internalType": "uint256",
          "name": "amount",
          "type": "uint256"
        }
      ],
      "name": "transferFrom",
      "outputs": [
        {
          "internalType": "bool",
          "name": "",
          "type": "bool"
        }
      ],
      "stateMutability": "nonpayable",
      "type": "function"
    },
    {
      "inputs": [],
      "name": "sendMoney",
      "outputs": [],
      "stateMutability": "payable",
      "type": "function"
    },
    {
      "inputs": [],
      "name": "getBalanceContract",
      "outputs": [
        {
          "internalType": "uint256",
          "name": "",
          "type": "uint256"
        }
      ],
      "stateMutability": "view",
      "type": "function"
    },
    {
      "inputs": [],
      "name": "getBalance",
      "outputs": [
        {
          "internalType": "uint256",
          "name": "",
          "type": "uint256"
        }
      ],
      "stateMutability": "view",
      "type": "function"
    },
    {
      "inputs": [],
      "name": "postulate",
      "outputs": [],
      "stateMutability": "payable",
      "type": "function"
    }
  ],
  "bytecode": "0x60806040523480156200001157600080fd5b506040518060400160405280600c81526020017f436172746d616e20436f696e00000000000000000000000000000000000000008152506040518060400160405280600481526020017f43544d43000000000000000000000000000000000000000000000000000000008152508160039080519060200190620000969291906200013a565b508060049080519060200190620000af9291906200013a565b50505033600560006101000a81548173ffffffffffffffffffffffffffffffffffffffff021916908373ffffffffffffffffffffffffffffffffffffffff16021790555033600760006101000a81548173ffffffffffffffffffffffffffffffffffffffff021916908373ffffffffffffffffffffffffffffffffffffffff1602179055506200024f565b8280546200014890620001ea565b90600052602060002090601f0160209004810192826200016c5760008555620001b8565b82601f106200018757805160ff1916838001178555620001b8565b82800160010185558215620001b8579182015b82811115620001b75782518255916020019190600101906200019a565b5b509050620001c79190620001cb565b5090565b5b80821115620001e6576000816000905550600101620001cc565b5090565b600060028204905060018216806200020357607f821691505b602082108114156200021a576200021962000220565b5b50919050565b7f4e487b7100000000000000000000000000000000000000000000000000000000600052602260045260246000fd5b6118d5806200025f6000396000f3fe6080604052600436106100fe5760003560e01c8063674f220f11610095578063a9059cbb11610064578063a9059cbb14610361578063b387ef921461039e578063cbedbf5a146103c9578063dd62ed3e146103d3578063e9c64a8214610410576100fe565b8063674f220f1461029157806370a08231146102bc57806395d89b41146102f9578063a457c2d714610324576100fe565b806323b872dd116100d157806323b872dd146101c1578063313ce567146101fe578063395093511461022957806366bd78fd14610266576100fe565b806306fdde0314610103578063095ea7b31461012e57806312065fe01461016b57806318160ddd14610196575b600080fd5b34801561010f57600080fd5b5061011861041a565b604051610125919061155e565b60405180910390f35b34801561013a57600080fd5b5061015560048036038101906101509190611153565b6104ac565b6040516101629190611543565b60405180910390f35b34801561017757600080fd5b506101806104cf565b60405161018d91906116a0565b60405180910390f35b3480156101a257600080fd5b506101ab6104d9565b6040516101b891906116a0565b60405180910390f35b3480156101cd57600080fd5b506101e860048036038101906101e39190611104565b6104e3565b6040516101f59190611543565b60405180910390f35b34801561020a57600080fd5b50610213610512565b60405161022091906116bb565b60405180910390f35b34801561023557600080fd5b50610250600480360381019061024b9190611153565b61051b565b60405161025d9190611543565b60405180910390f35b34801561027257600080fd5b5061027b6105c5565b60405161028891906116a0565b60405180910390f35b34801561029d57600080fd5b506102a66105cd565b6040516102b39190611528565b60405180910390f35b3480156102c857600080fd5b506102e360048036038101906102de919061109f565b6105f3565b6040516102f091906116a0565b60405180910390f35b34801561030557600080fd5b5061030e61063b565b60405161031b919061155e565b60405180910390f35b34801561033057600080fd5b5061034b60048036038101906103469190611153565b6106cd565b6040516103589190611543565b60405180910390f35b34801561036d57600080fd5b5061038860048036038101906103839190611153565b6107b7565b6040516103959190611543565b60405180910390f35b3480156103aa57600080fd5b506103b36107da565b6040516103c09190611528565b60405180910390f35b6103d1610800565b005b3480156103df57600080fd5b506103fa60048036038101906103f591906110c8565b61081b565b60405161040791906116a0565b60405180910390f35b6104186108a2565b005b606060038054610429906117d0565b80601f0160208091040260200160405190810160405280929190818152602001828054610455906117d0565b80156104a25780601f10610477576101008083540402835291602001916104a2565b820191906000526020600020905b81548152906001019060200180831161048557829003601f168201915b5050505050905090565b6000806104b7610a2b565b90506104c4818585610a33565b600191505092915050565b6000600654905090565b6000600254905090565b6000806104ee610a2b565b90506104fb858285610bfe565b610506858585610c8a565b60019150509392505050565b60006012905090565b600080610526610a2b565b90506105ba818585600160008673ffffffffffffffffffffffffffffffffffffffff1673ffffffffffffffffffffffffffffffffffffffff16815260200190815260200160002060008973ffffffffffffffffffffffffffffffffffffffff1673ffffffffffffffffffffffffffffffffffffffff168152602001908152602001600020546105b591906116f2565b610a33565b600191505092915050565b600047905090565b600760009054906101000a900473ffffffffffffffffffffffffffffffffffffffff1681565b60008060008373ffffffffffffffffffffffffffffffffffffffff1673ffffffffffffffffffffffffffffffffffffffff168152602001908152602001600020549050919050565b60606004805461064a906117d0565b80601f0160208091040260200160405190810160405280929190818152602001828054610676906117d0565b80156106c35780601f10610698576101008083540402835291602001916106c3565b820191906000526020600020905b8154815290600101906020018083116106a657829003601f168201915b5050505050905090565b6000806106d8610a2b565b90506000600160008373ffffffffffffffffffffffffffffffffffffffff1673ffffffffffffffffffffffffffffffffffffffff16815260200190815260200160002060008673ffffffffffffffffffffffffffffffffffffffff1673ffffffffffffffffffffffffffffffffffffffff1681526020019081526020016000205490508381101561079e576040517f08c379a000000000000000000000000000000000000000000000000000000000815260040161079590611660565b60405180910390fd5b6107ab8286868403610a33565b60019250505092915050565b6000806107c2610a2b565b90506107cf818585610c8a565b600191505092915050565b600560009054906101000a900473ffffffffffffffffffffffffffffffffffffffff1681565b346006600082825461081291906116f2565b92505081905550565b6000600160008473ffffffffffffffffffffffffffffffffffffffff1673ffffffffffffffffffffffffffffffffffffffff16815260200190815260200160002060008373ffffffffffffffffffffffffffffffffffffffff1673ffffffffffffffffffffffffffffffffffffffff16815260200190815260200160002054905092915050565b60065434116108e6576040517f08c379a00000000000000000000000000000000000000000000000000000000081526004016108dd90611640565b60405180910390fd5b600760009054906101000a900473ffffffffffffffffffffffffffffffffffffffff1673ffffffffffffffffffffffffffffffffffffffff166108fc6006549081150290604051600060405180830381858888f19350505050158015610950573d6000803e3d6000fd5b5034600681905550600560009054906101000a900473ffffffffffffffffffffffffffffffffffffffff16600760006101000a81548173ffffffffffffffffffffffffffffffffffffffff021916908373ffffffffffffffffffffffffffffffffffffffff16021790555033600560006101000a81548173ffffffffffffffffffffffffffffffffffffffff021916908373ffffffffffffffffffffffffffffffffffffffff160217905550610a29600760009054906101000a900473ffffffffffffffffffffffffffffffffffffffff166001610f0b565b565b600033905090565b600073ffffffffffffffffffffffffffffffffffffffff168373ffffffffffffffffffffffffffffffffffffffff161415610aa3576040517f08c379a0000000000000000000000000000000000000000000000000000000008152600401610a9a90611620565b60405180910390fd5b600073ffffffffffffffffffffffffffffffffffffffff168273ffffffffffffffffffffffffffffffffffffffff161415610b13576040517f08c379a0000000000000000000000000000000000000000000000000000000008152600401610b0a906115a0565b60405180910390fd5b80600160008573ffffffffffffffffffffffffffffffffffffffff1673ffffffffffffffffffffffffffffffffffffffff16815260200190815260200160002060008473ffffffffffffffffffffffffffffffffffffffff1673ffffffffffffffffffffffffffffffffffffffff168152602001908152602001600020819055508173ffffffffffffffffffffffffffffffffffffffff168373ffffffffffffffffffffffffffffffffffffffff167f8c5be1e5ebec7d5bd14f71427d1e84f3dd0314c0f7b2291e5b200ac8c7c3b92583604051610bf191906116a0565b60405180910390a3505050565b6000610c0a848461081b565b90507fffffffffffffffffffffffffffffffffffffffffffffffffffffffffffffffff8114610c845781811015610c76576040517f08c379a0000000000000000000000000000000000000000000000000000000008152600401610c6d906115c0565b60405180910390fd5b610c838484848403610a33565b5b50505050565b600073ffffffffffffffffffffffffffffffffffffffff168373ffffffffffffffffffffffffffffffffffffffff161415610cfa576040517f08c379a0000000000000000000000000000000000000000000000000000000008152600401610cf190611600565b60405180910390fd5b600073ffffffffffffffffffffffffffffffffffffffff168273ffffffffffffffffffffffffffffffffffffffff161415610d6a576040517f08c379a0000000000000000000000000000000000000000000000000000000008152600401610d6190611580565b60405180910390fd5b610d7583838361106b565b60008060008573ffffffffffffffffffffffffffffffffffffffff1673ffffffffffffffffffffffffffffffffffffffff16815260200190815260200160002054905081811015610dfb576040517f08c379a0000000000000000000000000000000000000000000000000000000008152600401610df2906115e0565b60405180910390fd5b8181036000808673ffffffffffffffffffffffffffffffffffffffff1673ffffffffffffffffffffffffffffffffffffffff16815260200190815260200160002081905550816000808573ffffffffffffffffffffffffffffffffffffffff1673ffffffffffffffffffffffffffffffffffffffff1681526020019081526020016000206000828254610e8e91906116f2565b925050819055508273ffffffffffffffffffffffffffffffffffffffff168473ffffffffffffffffffffffffffffffffffffffff167fddf252ad1be2c89b69c2b068fc378daa952ba7f163c4a11628f55a4df523b3ef84604051610ef291906116a0565b60405180910390a3610f05848484611070565b50505050565b600073ffffffffffffffffffffffffffffffffffffffff168273ffffffffffffffffffffffffffffffffffffffff161415610f7b576040517f08c379a0000000000000000000000000000000000000000000000000000000008152600401610f7290611680565b60405180910390fd5b610f876000838361106b565b8060026000828254610f9991906116f2565b92505081905550806000808473ffffffffffffffffffffffffffffffffffffffff1673ffffffffffffffffffffffffffffffffffffffff1681526020019081526020016000206000828254610fee91906116f2565b925050819055508173ffffffffffffffffffffffffffffffffffffffff16600073ffffffffffffffffffffffffffffffffffffffff167fddf252ad1be2c89b69c2b068fc378daa952ba7f163c4a11628f55a4df523b3ef8360405161105391906116a0565b60405180910390a361106760008383611070565b5050565b505050565b505050565b60008135905061108481611871565b92915050565b60008135905061109981611888565b92915050565b6000602082840312156110b157600080fd5b60006110bf84828501611075565b91505092915050565b600080604083850312156110db57600080fd5b60006110e985828601611075565b92505060206110fa85828601611075565b9150509250929050565b60008060006060848603121561111957600080fd5b600061112786828701611075565b935050602061113886828701611075565b92505060406111498682870161108a565b9150509250925092565b6000806040838503121561116657600080fd5b600061117485828601611075565b92505060206111858582860161108a565b9150509250929050565b61119881611748565b82525050565b6111a78161175a565b82525050565b60006111b8826116d6565b6111c281856116e1565b93506111d281856020860161179d565b6111db81611860565b840191505092915050565b60006111f36023836116e1565b91507f45524332303a207472616e7366657220746f20746865207a65726f206164647260008301527f65737300000000000000000000000000000000000000000000000000000000006020830152604082019050919050565b60006112596022836116e1565b91507f45524332303a20617070726f766520746f20746865207a65726f20616464726560008301527f73730000000000000000000000000000000000000000000000000000000000006020830152604082019050919050565b60006112bf601d836116e1565b91507f45524332303a20696e73756666696369656e7420616c6c6f77616e63650000006000830152602082019050919050565b60006112ff6026836116e1565b91507f45524332303a207472616e7366657220616d6f756e742065786365656473206260008301527f616c616e636500000000000000000000000000000000000000000000000000006020830152604082019050919050565b60006113656025836116e1565b91507f45524332303a207472616e736665722066726f6d20746865207a65726f20616460008301527f64726573730000000000000000000000000000000000000000000000000000006020830152604082019050919050565b60006113cb6024836116e1565b91507f45524332303a20617070726f76652066726f6d20746865207a65726f2061646460008301527f72657373000000000000000000000000000000000000000000000000000000006020830152604082019050919050565b60006114316011836116e1565b91507f4e6f7420656e6f756768742066756e64730000000000000000000000000000006000830152602082019050919050565b60006114716025836116e1565b91507f45524332303a2064656372656173656420616c6c6f77616e63652062656c6f7760008301527f207a65726f0000000000000000000000000000000000000000000000000000006020830152604082019050919050565b60006114d7601f836116e1565b91507f45524332303a206d696e7420746f20746865207a65726f2061646472657373006000830152602082019050919050565b61151381611786565b82525050565b61152281611790565b82525050565b600060208201905061153d600083018461118f565b92915050565b6000602082019050611558600083018461119e565b92915050565b6000602082019050818103600083015261157881846111ad565b905092915050565b60006020820190508181036000830152611599816111e6565b9050919050565b600060208201905081810360008301526115b98161124c565b9050919050565b600060208201905081810360008301526115d9816112b2565b9050919050565b600060208201905081810360008301526115f9816112f2565b9050919050565b6000602082019050818103600083015261161981611358565b9050919050565b60006020820190508181036000830152611639816113be565b9050919050565b6000602082019050818103600083015261165981611424565b9050919050565b6000602082019050818103600083015261167981611464565b9050919050565b60006020820190508181036000830152611699816114ca565b9050919050565b60006020820190506116b5600083018461150a565b92915050565b60006020820190506116d06000830184611519565b92915050565b600081519050919050565b600082825260208201905092915050565b60006116fd82611786565b915061170883611786565b9250827fffffffffffffffffffffffffffffffffffffffffffffffffffffffffffffffff0382111561173d5761173c611802565b5b828201905092915050565b600061175382611766565b9050919050565b60008115159050919050565b600073ffffffffffffffffffffffffffffffffffffffff82169050919050565b6000819050919050565b600060ff82169050919050565b60005b838110156117bb5780820151818401526020810190506117a0565b838111156117ca576000848401525b50505050565b600060028204905060018216806117e857607f821691505b602082108114156117fc576117fb611831565b5b50919050565b7f4e487b7100000000000000000000000000000000000000000000000000000000600052601160045260246000fd5b7f4e487b7100000000000000000000000000000000000000000000000000000000600052602260045260246000fd5b6000601f19601f8301169050919050565b61187a81611748565b811461188557600080fd5b50565b61189181611786565b811461189c57600080fd5b5056fea264697066735822122048b4df340ded7d1936f3320973b2a5312eb9890630b211619c52748c992cb7f464736f6c63430008000033",
  "immutableReferences": {},
  "source": "// SPDX-License-Identifier: GPL-3.0\n\npragma solidity >=0.7.0 <0.9.0;\nimport \"@openzeppelin/contracts/token/ERC20/ERC20.sol\";\n\ncontract CharToken is ERC20(\"Cartman Coin\", \"CTMC\") {\n    address public currentOwner;\n    uint256 balance;\n    address public previousOwner;\n\n    constructor() {\n        currentOwner = msg.sender;\n        previousOwner = msg.sender;\n    }\n\n    modifier onlyOwner() {\n        require(msg.sender == currentOwner, \"You aren't the currrent owner\");\n        _;\n    }\n\n    function sendMoney() public payable {\n        balance += msg.value;\n    }\n\n    function getBalanceContract() public view returns (uint256) {\n        return address(this).balance;\n    }\n\n    function getBalance() public view returns (uint256) {\n        return balance;\n    }\n\n    function postulate() public payable {\n        require(msg.value > balance, \"Not enought funds\");\n        payable(previousOwner).transfer(balance);\n        balance = msg.value;\n        previousOwner = currentOwner;\n        currentOwner = msg.sender;\n        _mint(previousOwner, 1);\n    }\n}\n",
  "sourcePath": "/Users/scarlos/Documents/Solidity/finalProject/contracts/Mejorpostor.sol",
  "compiler": {
    "name": "solc",
    "version": "0.8.0+commit.c7dfd78e.Emscripten.clang"
  },
  "schemaVersion": "3.4.4",
  "updatedAt": "2022-03-02T05:54:22.997Z",
  "devdoc": {
    "kind": "dev",
    "methods": {
      "allowance(address,address)": {
        "details": "See {IERC20-allowance}."
      },
      "approve(address,uint256)": {
        "details": "See {IERC20-approve}. NOTE: If `amount` is the maximum `uint256`, the allowance is not updated on `transferFrom`. This is semantically equivalent to an infinite approval. Requirements: - `spender` cannot be the zero address."
      },
      "balanceOf(address)": {
        "details": "See {IERC20-balanceOf}."
      },
      "decimals()": {
        "details": "Returns the number of decimals used to get its user representation. For example, if `decimals` equals `2`, a balance of `505` tokens should be displayed to a user as `5.05` (`505 / 10 ** 2`). Tokens usually opt for a value of 18, imitating the relationship between Ether and Wei. This is the value {ERC20} uses, unless this function is overridden; NOTE: This information is only used for _display_ purposes: it in no way affects any of the arithmetic of the contract, including {IERC20-balanceOf} and {IERC20-transfer}."
      },
      "decreaseAllowance(address,uint256)": {
        "details": "Atomically decreases the allowance granted to `spender` by the caller. This is an alternative to {approve} that can be used as a mitigation for problems described in {IERC20-approve}. Emits an {Approval} event indicating the updated allowance. Requirements: - `spender` cannot be the zero address. - `spender` must have allowance for the caller of at least `subtractedValue`."
      },
      "increaseAllowance(address,uint256)": {
        "details": "Atomically increases the allowance granted to `spender` by the caller. This is an alternative to {approve} that can be used as a mitigation for problems described in {IERC20-approve}. Emits an {Approval} event indicating the updated allowance. Requirements: - `spender` cannot be the zero address."
      },
      "name()": {
        "details": "Returns the name of the token."
      },
      "symbol()": {
        "details": "Returns the symbol of the token, usually a shorter version of the name."
      },
      "totalSupply()": {
        "details": "See {IERC20-totalSupply}."
      },
      "transfer(address,uint256)": {
        "details": "See {IERC20-transfer}. Requirements: - `to` cannot be the zero address. - the caller must have a balance of at least `amount`."
      },
      "transferFrom(address,address,uint256)": {
        "details": "See {IERC20-transferFrom}. Emits an {Approval} event indicating the updated allowance. This is not required by the EIP. See the note at the beginning of {ERC20}. NOTE: Does not update the allowance if the current allowance is the maximum `uint256`. Requirements: - `from` and `to` cannot be the zero address. - `from` must have a balance of at least `amount`. - the caller must have allowance for ``from``'s tokens of at least `amount`."
      }
    },
    "version": 1
  },
  "userdoc": {
    "kind": "user",
    "methods": {},
    "version": 1
  }
}